{
  "contractName": "VoteProposalPool",
  "abi": [
    {
      "anonymous": false,
      "inputs": [
        {
          "indexed": false,
          "internalType": "address",
          "name": "proposal",
          "type": "address"
        },
        {
          "indexed": false,
          "internalType": "address",
          "name": "issuer",
          "type": "address"
        },
        {
          "indexed": false,
          "internalType": "uint32",
          "name": "deadline",
          "type": "uint32"
        },
        {
          "indexed": false,
          "internalType": "string",
          "name": "name",
          "type": "string"
        },
        {
          "indexed": false,
          "internalType": "string",
          "name": "data",
          "type": "string"
        },
        {
          "indexed": false,
          "internalType": "string",
          "name": "optionA",
          "type": "string"
        },
        {
          "indexed": false,
          "internalType": "address",
          "name": "optionAaddr",
          "type": "address"
        },
        {
          "indexed": false,
          "internalType": "string",
          "name": "optionB",
          "type": "string"
        },
        {
          "indexed": false,
          "internalType": "address",
          "name": "optionBaddr",
          "type": "address"
        }
      ],
      "name": "newProposalIssued",
      "type": "event"
    },
    {
      "constant": false,
      "inputs": [
        {
          "internalType": "string",
          "name": "_name",
          "type": "string"
        },
        {
          "internalType": "string",
          "name": "_data",
          "type": "string"
        },
        {
          "internalType": "uint32",
          "name": "_deadline",
          "type": "uint32"
        }
      ],
      "name": "newVoteProposal",
      "outputs": [
        {
          "internalType": "contract VoteProposal",
          "name": "newProposal",
          "type": "address"
        }
      ],
      "payable": false,
      "stateMutability": "nonpayable",
      "type": "function"
    }
  ],
  "bytecode": "0x608060405234801561001057600080fd5b506114e9806100206000396000f3fe608060405234801561001057600080fd5b506004361061002b5760003560e01c8063e96a678f14610030575b600080fd5b61010c6004803603606081101561004657600080fd5b810190808035906020019064010000000081111561006357600080fd5b82018360208201111561007557600080fd5b8035906020019184600183028401116401000000008311171561009757600080fd5b9091929391929390803590602001906401000000008111156100b857600080fd5b8201836020820111156100ca57600080fd5b803590602001918460018302840111640100000000831117156100ec57600080fd5b9091929391929390803563ffffffff16906020019092919050505061014e565b604051808273ffffffffffffffffffffffffffffffffffffffff1673ffffffffffffffffffffffffffffffffffffffff16815260200191505060405180910390f35b60008162093a8042018163ffffffff1610156101b5576040517f08c379a000000000000000000000000000000000000000000000000000000000815260040180806020018281038252602b81526020018061145b602b913960400191505060405180910390fd5b6301e2850042018163ffffffff16111561021a576040517f08c379a000000000000000000000000000000000000000000000000000000000815260040180806020018281038252602f815260200180611486602f913960400191505060405180910390fd5b86868080601f016020809104026020016040519081016040528093929190818152602001838380828437600081840152601f19601f820116905080830192505050505050506060819050610118815111156102c0576040517f08c379a00000000000000000000000000000000000000000000000000000000081526004018080602001828103825260368152602001806113fa6036913960400191505060405180910390fd5b60048151101561031b576040517f08c379a000000000000000000000000000000000000000000000000000000000815260040180806020018281038252602b815260200180611430602b913960400191505060405180910390fd5b848989898960405161032c906107af565b808663ffffffff1663ffffffff16815260200180602001806020018381038352878782818152602001925080828437600081840152601f19601f8201169050808301925050508381038252858582818152602001925080828437600081840152601f19601f820116905080830192505050975050505050505050604051809103906000f0801580156103c2573d6000803e3d6000fd5b5093508373ffffffffffffffffffffffffffffffffffffffff1663c4ff593d868b8b6040518463ffffffff1660e01b8152600401808463ffffffff1663ffffffff168152602001806020018281038252848482818152602001925080828437600081840152601f19601f8201169050808301925050509450505050506040805180830381600087803b15801561045757600080fd5b505af115801561046b573d6000803e3d6000fd5b505050506040513d604081101561048157600080fd5b81019080805190602001909291908051906020019092919050505050507f049d157c96fd035951f63af1be02d2276a2b793d59828192a9130fefe99970388433878c8c8c8c8b73ffffffffffffffffffffffffffffffffffffffff1663409e220560006040518263ffffffff1660e01b81526004018082815260200191505060206040518083038186803b15801561051857600080fd5b505afa15801561052c573d6000803e3d6000fd5b505050506040513d602081101561054257600080fd5b81019080805190602001909291905050508c73ffffffffffffffffffffffffffffffffffffffff1663409e220560016040518263ffffffff1660e01b81526004018082815260200191505060206040518083038186803b1580156105a557600080fd5b505afa1580156105b9573d6000803e3d6000fd5b505050506040513d60208110156105cf57600080fd5b8101908080519060200190929190505050604051808a73ffffffffffffffffffffffffffffffffffffffff1673ffffffffffffffffffffffffffffffffffffffff1681526020018973ffffffffffffffffffffffffffffffffffffffff1673ffffffffffffffffffffffffffffffffffffffff1681526020018863ffffffff1663ffffffff1681526020018060200180602001806020018673ffffffffffffffffffffffffffffffffffffffff1673ffffffffffffffffffffffffffffffffffffffff168152602001806020018673ffffffffffffffffffffffffffffffffffffffff1673ffffffffffffffffffffffffffffffffffffffff16815260200185810385528b8b82818152602001925080828437600081840152601f19601f8201169050808301925050508581038452898982818152602001925080828437600081840152601f19601f820116905080830192505050858103835260038152602001807f7965730000000000000000000000000000000000000000000000000000000000815250602001858103825260028152602001807f6e6f0000000000000000000000000000000000000000000000000000000000008152506020019d505050505050505050505050505060405180910390a150505095945050505050565b610c3d806107bd8339019056fe608060405234801561001057600080fd5b50604051610c3d380380610c3d8339818101604052606081101561003357600080fd5b81019080805190602001909291908051604051939291908464010000000082111561005d57600080fd5b8382019150602082018581111561007357600080fd5b825186600182028301116401000000008211171561009057600080fd5b8083526020830192505050908051906020019080838360005b838110156100c45780820151818401526020810190506100a9565b50505050905090810190601f1680156100f15780820380516001836020036101000a031916815260200191505b506040526020018051604051939291908464010000000082111561011457600080fd5b8382019150602082018581111561012a57600080fd5b825186600182028301116401000000008211171561014757600080fd5b8083526020830192505050908051906020019080838360005b8381101561017b578082015181840152602081019050610160565b50505050905090810190601f1680156101a85780820380516001836020036101000a031916815260200191505b5060405250505033600160006101000a81548173ffffffffffffffffffffffffffffffffffffffff021916908373ffffffffffffffffffffffffffffffffffffffff160217905550336000806101000a81548173ffffffffffffffffffffffffffffffffffffffff021916908373ffffffffffffffffffffffffffffffffffffffff16021790555082600160146101000a81548163ffffffff021916908363ffffffff1602179055508160029080519060200190610267929190610287565b50806003908051906020019061027e929190610287565b5050505061032c565b828054600181600116156101000203166002900490600052602060002090601f016020900481019282601f106102c857805160ff19168380011785556102f6565b828001600101855582156102f6579182015b828111156102f55782518255916020019190600101906102da565b5b5090506103039190610307565b5090565b61032991905b8082111561032557600081600090555060010161030d565b5090565b90565b6109028061033b6000396000f3fe608060405234801561001057600080fd5b50600436106100365760003560e01c8063409e22051461003b578063c4ff593d146100a9575b600080fd5b6100676004803603602081101561005157600080fd5b81019080803590602001909291905050506101a5565b604051808273ffffffffffffffffffffffffffffffffffffffff1673ffffffffffffffffffffffffffffffffffffffff16815260200191505060405180910390f35b610130600480360360408110156100bf57600080fd5b81019080803563ffffffff169060200190929190803590602001906401000000008111156100ec57600080fd5b8201836020820111156100fe57600080fd5b8035906020019184600183028401116401000000008311171561012057600080fd5b90919293919293905050506101d8565b604051808373ffffffffffffffffffffffffffffffffffffffff1673ffffffffffffffffffffffffffffffffffffffff1681526020018273ffffffffffffffffffffffffffffffffffffffff1673ffffffffffffffffffffffffffffffffffffffff1681526020019250505060405180910390f35b60046020528060005260406000206000915054906101000a900473ffffffffffffffffffffffffffffffffffffffff1681565b6000808484846040516101ea906103e6565b808463ffffffff1663ffffffff16815260200180602001806020018381038352858582818152602001925080828437600081840152601f19601f820116905080830192505050838103825260038152602001807f796573000000000000000000000000000000000000000000000000000000000081525060200195505050505050604051809103906000f080158015610287573d6000803e3d6000fd5b509150848484604051610299906103e6565b808463ffffffff1663ffffffff16815260200180602001806020018381038352858582818152602001925080828437600081840152601f19601f820116905080830192505050838103825260028152602001807f6e6f00000000000000000000000000000000000000000000000000000000000081525060200195505050505050604051809103906000f080158015610336573d6000803e3d6000fd5b509050816004600080815260200190815260200160002060006101000a81548173ffffffffffffffffffffffffffffffffffffffff021916908373ffffffffffffffffffffffffffffffffffffffff16021790555080600460006001815260200190815260200160002060006101000a81548173ffffffffffffffffffffffffffffffffffffffff021916908373ffffffffffffffffffffffffffffffffffffffff160217905550935093915050565b6104da806103f48339019056fe608060405234801561001057600080fd5b506040516104da3803806104da8339818101604052606081101561003357600080fd5b81019080805190602001909291908051604051939291908464010000000082111561005d57600080fd5b8382019150602082018581111561007357600080fd5b825186600182028301116401000000008211171561009057600080fd5b8083526020830192505050908051906020019080838360005b838110156100c45780820151818401526020810190506100a9565b50505050905090810190601f1680156100f15780820380516001836020036101000a031916815260200191505b506040526020018051604051939291908464010000000082111561011457600080fd5b8382019150602082018581111561012a57600080fd5b825186600182028301116401000000008211171561014757600080fd5b8083526020830192505050908051906020019080838360005b8381101561017b578082015181840152602081019050610160565b50505050905090810190601f1680156101a85780820380516001836020036101000a031916815260200191505b5060405250505033600160006101000a81548173ffffffffffffffffffffffffffffffffffffffff021916908373ffffffffffffffffffffffffffffffffffffffff160217905550336000806101000a81548173ffffffffffffffffffffffffffffffffffffffff021916908373ffffffffffffffffffffffffffffffffffffffff16021790555082600160146101000a81548163ffffffff021916908363ffffffff1602179055508160029080519060200190610267929190610287565b50806003908051906020019061027e929190610287565b5050505061032c565b828054600181600116156101000203166002900490600052602060002090601f016020900481019282601f106102c857805160ff19168380011785556102f6565b828001600101855582156102f6579182015b828111156102f55782518255916020019190600101906102da565b5b5090506103039190610307565b5090565b61032991905b8082111561032557600081600090555060010161030d565b5090565b90565b61019f8061033b6000396000f3fe60806040523373ffffffffffffffffffffffffffffffffffffffff167f9cd57af8a0cfa1471e7fd21764be3e76f622e961b18e665e2d784e5ea449b65534600260036040518084815260200180602001806020018381038352858181546001816001161561010002031660029004815260200191508054600181600116156101000203166002900480156100d45780601f106100a9576101008083540402835291602001916100d4565b820191906000526020600020905b8154815290600101906020018083116100b757829003601f168201915b50508381038252848181546001816001161561010002031660029004815260200191508054600181600116156101000203166002900480156101575780601f1061012c57610100808354040283529160200191610157565b820191906000526020600020905b81548152906001019060200180831161013a57829003601f168201915b50509550505050505060405180910390a200fea265627a7a723158204fa467fd5397f170fa10c2c5ed1ba18b7bbed8bb8bf662a9a4b0abb1a8423a5864736f6c63430005100032a265627a7a72315820789033f1a088d34a67950ac3297b3b78a4f379e4601174e1c1e2b7c9097383e664736f6c6343000510003250726f706f73616c206e616d65206d757374206265206c657373207468616e203238302063686172616374657273202841534349492950726f706f73616c206e616d65206174206c65617374203420636861726163746572732028415343494929446561646c696e65206d757374206265206174206c65617374206f6e65207765656b2066726f6d206e6f77446561646c696e65206d757374206265206e6f206d6f7265207468616e206f6e6520796561722066726f6d206e6f77a265627a7a72315820abceb1c46a185e73e842cb61d50467891f1f02fb707f13fd95afe13ebfef6bf264736f6c63430005100032",
  "source": "pragma solidity 0.5.16;\n\ncontract VoteOption {\n    VoteProposal creator;\n    address owner;\n    uint32 deadline;\n    string name;\n    string option;\n\n    constructor(uint32 _deadline, string memory _name, string memory _option) public {\n        owner = msg.sender;\n        creator = VoteProposal(msg.sender);\n        deadline = _deadline;\n        name = _name;\n        option = _option;\n    }\n\n    event AnonymousDeposit(address indexed from, uint value, string name, string option);\n\n    function() external payable {\n\t    emit AnonymousDeposit(msg.sender, msg.value, name, option);\n    }\n}\n\ncontract VoteProposal {\n    VoteProposalPool creator;\n    address owner;\n    uint32 deadline;\n    string name;\n    string data;\n\n    mapping(uint => address) public options;\n\n    constructor(uint32 _deadline, string memory _name, string memory _data) public {\n        owner = msg.sender;\n        creator = VoteProposalPool(msg.sender);\n        deadline = _deadline;\n        name = _name;\n        data = _data;\n    }\n\n    function createOptions(uint32 _deadline, string calldata _name)\n        external\n        returns (VoteOption yes, VoteOption no)\n    {\n        yes = new VoteOption(_deadline, _name, \"yes\");\n        no = new VoteOption(_deadline, _name, \"no\");\n        options[0] = address(yes);\n        options[1] = address(no);\n    }\n}\n\ncontract VoteProposalPool {\n\n    function newVoteProposal(\n        string calldata _name,\n        string calldata _data,\n        uint32 _deadline\n    )\n        external\n        validateDeadline(_deadline)\n        validateName(_name)\n        returns (VoteProposal newProposal)\n    {\n        newProposal = new VoteProposal(_deadline, _name, _data);\n        newProposal.createOptions(_deadline, _name);\n        emit newProposalIssued(\n            address(newProposal),\n            msg.sender,\n            _deadline,\n            _name,\n            _data,\n            \"yes\",\n            newProposal.options(0),\n            \"no\",\n            newProposal.options(1));\n    }\n\n\n    modifier validateDeadline(uint32 _deadline) {\n        require(_deadline >= (now + 604800), \"Deadline must be at least one week from now\");\n        require(_deadline <= (now + 31622400), \"Deadline must be no more than one year from now\");\n        _;\n    }\n\n    modifier validateName(string memory _name) {\n        bytes memory nameBytes = bytes(_name);\n        require(nameBytes.length <= 280, \"Proposal name must be less than 280 characters (ASCII)\");\n        require(nameBytes.length >= 4, \"Proposal name at least 4 characters (ASCII)\");\n        _;\n    }\n\n    event newProposalIssued(\n        address proposal,\n        address issuer,\n        uint32 deadline,\n        string name,\n        string data,\n        string optionA,\n        address optionAaddr,\n        string optionB,\n        address optionBaddr);\n}\n",
  "sourcePath": "/Users/cex/Desktop/test/contracts/VoteProposalPool.sol",
  "compiler": {
    "name": "solc",
    "version": "0.5.16+commit.9c3226ce.Emscripten.clang"
  },
  "schemaVersion": "3.0.23",
  "updatedAt": "2020-03-13T03:22:01.209Z",
  "devdoc": {
    "methods": {}
  },
  "userdoc": {
    "methods": {}
  }
}